{
  "contractName": "FixedProductMarketMakerFactory",
  "abi": [
    {
      "constant": true,
      "inputs": [],
      "name": "implementationMaster",
      "outputs": [
        {
          "name": "",
          "type": "address"
        }
      ],
      "payable": false,
      "stateMutability": "view",
      "type": "function"
    },
    {
      "inputs": [],
      "payable": false,
      "stateMutability": "nonpayable",
      "type": "constructor"
    },
    {
      "anonymous": false,
      "inputs": [
        {
          "indexed": true,
          "name": "creator",
          "type": "address"
        },
        {
          "indexed": false,
          "name": "fixedProductMarketMaker",
          "type": "address"
        },
        {
          "indexed": true,
          "name": "conditionalTokens",
          "type": "address"
        },
        {
          "indexed": true,
          "name": "collateralToken",
          "type": "address"
        },
        {
          "indexed": false,
          "name": "conditionIds",
          "type": "bytes32[]"
        },
        {
          "indexed": false,
          "name": "fee",
          "type": "uint256"
        }
      ],
      "name": "FixedProductMarketMakerCreation",
      "type": "event"
    },
    {
      "anonymous": false,
      "inputs": [
        {
          "indexed": true,
          "name": "funder",
          "type": "address"
        },
        {
          "indexed": false,
          "name": "amountsAdded",
          "type": "uint256[]"
        },
        {
          "indexed": false,
          "name": "sharesMinted",
          "type": "uint256"
        }
      ],
      "name": "FPMMFundingAdded",
      "type": "event"
    },
    {
      "anonymous": false,
      "inputs": [
        {
          "indexed": true,
          "name": "funder",
          "type": "address"
        },
        {
          "indexed": false,
          "name": "amountsRemoved",
          "type": "uint256[]"
        },
        {
          "indexed": false,
          "name": "collateralRemovedFromFeePool",
          "type": "uint256"
        },
        {
          "indexed": false,
          "name": "sharesBurnt",
          "type": "uint256"
        }
      ],
      "name": "FPMMFundingRemoved",
      "type": "event"
    },
    {
      "anonymous": false,
      "inputs": [
        {
          "indexed": true,
          "name": "buyer",
          "type": "address"
        },
        {
          "indexed": false,
          "name": "investmentAmount",
          "type": "uint256"
        },
        {
          "indexed": false,
          "name": "feeAmount",
          "type": "uint256"
        },
        {
          "indexed": true,
          "name": "outcomeIndex",
          "type": "uint256"
        },
        {
          "indexed": false,
          "name": "outcomeTokensBought",
          "type": "uint256"
        }
      ],
      "name": "FPMMBuy",
      "type": "event"
    },
    {
      "anonymous": false,
      "inputs": [
        {
          "indexed": true,
          "name": "seller",
          "type": "address"
        },
        {
          "indexed": false,
          "name": "returnAmount",
          "type": "uint256"
        },
        {
          "indexed": false,
          "name": "feeAmount",
          "type": "uint256"
        },
        {
          "indexed": true,
          "name": "outcomeIndex",
          "type": "uint256"
        },
        {
          "indexed": false,
          "name": "outcomeTokensSold",
          "type": "uint256"
        }
      ],
      "name": "FPMMSell",
      "type": "event"
    },
    {
      "anonymous": false,
      "inputs": [
        {
          "indexed": true,
          "name": "target",
          "type": "address"
        },
        {
          "indexed": false,
          "name": "clone",
          "type": "address"
        }
      ],
      "name": "CloneCreated",
      "type": "event"
    },
    {
      "constant": false,
      "inputs": [
        {
          "name": "consData",
          "type": "bytes"
        }
      ],
      "name": "cloneConstructor",
      "outputs": [],
      "payable": false,
      "stateMutability": "nonpayable",
      "type": "function"
    },
    {
      "constant": false,
      "inputs": [
        {
          "name": "conditionalTokens",
          "type": "address"
        },
        {
          "name": "collateralToken",
          "type": "address"
        },
        {
          "name": "conditionIds",
          "type": "bytes32[]"
        },
        {
          "name": "fee",
          "type": "uint256"
        }
      ],
      "name": "createFixedProductMarketMaker",
      "outputs": [
        {
          "name": "",
          "type": "address"
        }
      ],
      "payable": false,
      "stateMutability": "nonpayable",
      "type": "function"
    }
  ],
  "bytecode": "0x608060405234801561001057600080fd5b5061001961007b565b604051809103906000f080158015610035573d6000803e3d6000fd5b50600e60006101000a81548173ffffffffffffffffffffffffffffffffffffffff021916908373ffffffffffffffffffffffffffffffffffffffff16021790555061008c565b6040516149de8062001eb583390190565b611e19806200009c6000396000f3fe608060405260043610610051576000357c01000000000000000000000000000000000000000000000000000000009004806312b4d20c1461005657806323f66e47146100ad57806352e831dd146101bd575b600080fd5b34801561006257600080fd5b5061006b610243565b604051808273ffffffffffffffffffffffffffffffffffffffff1673ffffffffffffffffffffffffffffffffffffffff16815260200191505060405180910390f35b3480156100b957600080fd5b5061017b600480360360808110156100d057600080fd5b81019080803573ffffffffffffffffffffffffffffffffffffffff169060200190929190803573ffffffffffffffffffffffffffffffffffffffff1690602001909291908035906020019064010000000081111561012d57600080fd5b82018360208201111561013f57600080fd5b8035906020019184602083028401116401000000008311171561016157600080fd5b909192939192939080359060200190929190505050610269565b604051808273ffffffffffffffffffffffffffffffffffffffff1673ffffffffffffffffffffffffffffffffffffffff16815260200191505060405180910390f35b3480156101c957600080fd5b50610241600480360360208110156101e057600080fd5b81019080803590602001906401000000008111156101fd57600080fd5b82018360208201111561020f57600080fd5b8035906020019184600183028401116401000000008311171561023157600080fd5b909192939192939050505061044c565b005b600e60009054906101000a900473ffffffffffffffffffffffffffffffffffffffff1681565b600080610356600e60009054906101000a900473ffffffffffffffffffffffffffffffffffffffff168888888888604051602001808673ffffffffffffffffffffffffffffffffffffffff1673ffffffffffffffffffffffffffffffffffffffff1681526020018573ffffffffffffffffffffffffffffffffffffffff1673ffffffffffffffffffffffffffffffffffffffff168152602001806020018381526020018281038252858582818152602001925060200280828437600081840152601f19601f8201169050808301925050509650505050505050604051602081830303815290604052610a65565b90508573ffffffffffffffffffffffffffffffffffffffff168773ffffffffffffffffffffffffffffffffffffffff163373ffffffffffffffffffffffffffffffffffffffff167f92e0912d3d7f3192cad5c7ae3b47fb97f9c465c1dd12a5c24fd901ddb3905f4384898989604051808573ffffffffffffffffffffffffffffffffffffffff1673ffffffffffffffffffffffffffffffffffffffff168152602001806020018381526020018281038252858582818152602001925060200280828437600081840152601f19601f8201169050808301925050509550505050505060405180910390a48091505095945050505050565b600080606060008585608081101561046357600080fd5b81019080803573ffffffffffffffffffffffffffffffffffffffff169060200190929190803573ffffffffffffffffffffffffffffffffffffffff169060200190929190803590602001906401000000008111156104c057600080fd5b8201836020820111156104d257600080fd5b803590602001918460208302840111640100000000831117156104f457600080fd5b919080806020026020016040519081016040528093929190818152602001838360200280828437600081840152601f19601f8201169050808301925050505050505091929192908035906020019092919050505093509350935093506001600360006301ffc9a77c0100000000000000000000000000000000000000000000000000000000027bffffffffffffffffffffffffffffffffffffffffffffffffffffffff19167bffffffffffffffffffffffffffffffffffffffffffffffffffffffff1916815260200190815260200160002060006101000a81548160ff0219169083151502179055506001600360008073ffffffffffffffffffffffffffffffffffffffff1663bc197c8190507c010000000000000000000000000000000000000000000000000000000002600073ffffffffffffffffffffffffffffffffffffffff1663f23a6e6190507c010000000000000000000000000000000000000000000000000000000002187bffffffffffffffffffffffffffffffffffffffffffffffffffffffff19167bffffffffffffffffffffffffffffffffffffffffffffffffffffffff1916815260200190815260200160002060006101000a81548160ff02191690831515021790555083600460006101000a81548173ffffffffffffffffffffffffffffffffffffffff021916908373ffffffffffffffffffffffffffffffffffffffff16021790555082600560006101000a81548173ffffffffffffffffffffffffffffffffffffffff021916908373ffffffffffffffffffffffffffffffffffffffff160217905550816006908051906020019061075a929190611c0f565b508060078190555060006001905060068054905060405190808252806020026020018201604052801561079c5781602001602082028038833980820191505090505b50600990805190602001906107b2929190611c5c565b5060008090505b6006805490508110156108de576000600460009054906101000a900473ffffffffffffffffffffffffffffffffffffffff1673ffffffffffffffffffffffffffffffffffffffff1663d42dc0c260068481548110151561081557fe5b90600052602060002001546040518263ffffffff167c01000000000000000000000000000000000000000000000000000000000281526004018082815260200191505060206040518083038186803b15801561087057600080fd5b505afa158015610884573d6000803e3d6000fd5b505050506040513d602081101561089a57600080fd5b810190808051906020019092919050505090508083029250806009838154811015156108c257fe5b90600052602060002001819055505080806001019150506107b9565b50600181111515610957576040517f08c379a00000000000000000000000000000000000000000000000000000000081526004018080602001828103825260188152602001807f636f6e646974696f6e73206d7573742062652076616c6964000000000000000081525060200191505060405180910390fd5b60068054905060405190808252806020026020018201604052801561099057816020015b606081526020019060019003908161097b5790505b50600a90805190602001906109a6929190611ca9565b506109ba6006805490506000600102610d40565b80600b80549050141515610a5c576040517f08c379a00000000000000000000000000000000000000000000000000000000081526004018080602001828103825260228152602001807f706f736974696f6e2049447320636f6e737472756374696f6e206661696c656481526020017f213f00000000000000000000000000000000000000000000000000000000000081525060400191505060405180910390fd5b50505050505050565b60006060826040516024018080602001828103825283818151815260200191508051906020019080838360005b83811015610aad578082015181840152602081019050610a92565b50505050905090810190601f168015610ada5780820380516001836020036101000a031916815260200191505b50925050506040516020818303038152906040527f52e831dd000000000000000000000000000000000000000000000000000000007bffffffffffffffffffffffffffffffffffffffffffffffffffffffff19166020820180517bffffffffffffffffffffffffffffffffffffffffffffffffffffffff83818316178352505050509050606060638251016040519080825280601f01601f191660200182016040528015610b975781602001600182028038833980820191505090505b5090507f3d3d606380380380913d393d73bebebebebebebebebebebebebebebebebebebe60208201526c010000000000000000000000003002602d8201527f5af4602a57600080fd5b602d8060366000396000f3363d3d373d3d3d363d73be60418201526c01000000000000000000000000850260608201527f5af43d82803e903d91602b57fd5bf30000000000000000000000000000000000607482015260008090505b8251811015610cec578281815181101515610c5357fe5b9060200101517f010000000000000000000000000000000000000000000000000000000000000090047f0100000000000000000000000000000000000000000000000000000000000000028282606301815181101515610caf57fe5b9060200101907effffffffffffffffffffffffffffffffffffffffffffffffffffffffffffff1916908160001a9053508080600101915050610c3c565b5080516020820181816000f094505050600073ffffffffffffffffffffffffffffffffffffffff168373ffffffffffffffffffffffffffffffffffffffff1614151515610d3857600080fd5b505092915050565b6000821415610da557600b610d77600560009054906101000a900473ffffffffffffffffffffffffffffffffffffffff1683610e65565b9080600181540180825580915050906001820390600052602060002001600090919290919091505550610e61565b8180600190039250506000600983815481101515610dbf57fe5b90600052602060002001549050600a83815481101515610ddb57fe5b9060005260206000200182908060018154018082558091505090600182039060005260206000200160009091929091909150555060008090505b81811015610e5e57610e5184610e4c85600688815481101515610e3457fe5b90600052602060002001548560019060020a02610edd565b610d40565b8080600101915050610e15565b50505b5050565b60008282604051602001808373ffffffffffffffffffffffffffffffffffffffff1673ffffffffffffffffffffffffffffffffffffffff166c01000000000000000000000000028152601401828152602001925050506040516020818303038152906040528051906020012060019004905092915050565b600080838360405160200180838152602001828152602001925050506040516020818303038152906040528051906020012060019004905060008060ff83908060020a8204915050141590506000805b7f30644e72e131a029b85045b68181585d97816a916871ca8d3c208c16d87cfd47801515610f5757fe5b6001850893507f30644e72e131a029b85045b68181585d97816a916871ca8d3c208c16d87cfd47801515610f8757fe5b60037f30644e72e131a029b85045b68181585d97816a916871ca8d3c208c16d87cfd47801515610fb357fe5b7f30644e72e131a029b85045b68181585d97816a916871ca8d3c208c16d87cfd47801515610fdd57fe5b8788098709089050610fee81611454565b9150807f30644e72e131a029b85045b68181585d97816a916871ca8d3c208c16d87cfd4780151561101b57fe5b83840914151515610f2d5782801561103f5750600060028381151561103c57fe5b06145b8061106057508215801561105f5750600160028381151561105c57fe5b06145b5b1561108b57817f30644e72e131a029b85045b68181585d97816a916871ca8d3c208c16d87cfd470391505b60008860019004905060008114151561140757600060fe82908060020a820491505014159350600280829060020a02908060020a820491505090507f30644e72e131a029b85045b68181585d97816a916871ca8d3c208c16d87cfd478015156110f057fe5b60037f30644e72e131a029b85045b68181585d97816a916871ca8d3c208c16d87cfd4780151561111c57fe5b7f30644e72e131a029b85045b68181585d97816a916871ca8d3c208c16d87cfd4780151561114657fe5b8485098409089150600061115983611454565b90508480156111745750600060028281151561117157fe5b06145b806111955750841580156111945750600160028281151561119157fe5b06145b5b156111c057807f30644e72e131a029b85045b68181585d97816a916871ca8d3c208c16d87cfd470390505b827f30644e72e131a029b85045b68181585d97816a916871ca8d3c208c16d87cfd478015156111eb57fe5b828309141515611263576040517f08c379a000000000000000000000000000000000000000000000000000000000815260040180806020018281038252601c8152602001807f696e76616c696420706172656e7420636f6c6c656374696f6e2049440000000081525060200191505060405180910390fd5b60006060600673ffffffffffffffffffffffffffffffffffffffff1688878686604051602001808581526020018481526020018381526020018281526020019450505050506040516020818303038152906040526040518082805190602001908083835b6020831015156112ec57805182526020820191506020810190506020830392506112c7565b6001836020036101000a038019825116818451168082178552505050505050905001915050600060405180830381855afa9150503d806000811461134c576040519150601f19603f3d011682016040523d82523d6000602084013e611351565b606091505b50915091508115156113cb576040517f08c379a000000000000000000000000000000000000000000000000000000000815260040180806020018281038252600c8152602001807f6563616464206661696c6564000000000000000000000000000000000000000081525060200191505060405180910390fd5b8080602001905160408110156113e057600080fd5b81019080805190602001909291908051906020019092919050505080975081995050505050505b600160028481151561141557fe5b061415611442577f4000000000000000000000000000000000000000000000000000000000000000851894505b84600102955050505050509392505050565b6000807f30644e72e131a029b85045b68181585d97816a916871ca8d3c208c16d87cfd47905080838409915080828309818182099050818184099250818385099350818484099250818384099050818182098281830990508281820990508281820990508281830991508282860994508285860991508282830991508282850993508284850991508282830991508282830991508282850991508282860994508285860991508282830991508282830991508282860991508282850993508284860994508285860991508282830991508282850993508284850991508282830990508281820990508281820990508281830991508282860994508285850993508284850991508282830991508282830991508282860994508285860991508282830991508282860991508282830991508282830991508282860991508282850993508284850991508282830990508281820990508281830990508281850990508281820990508281820990508281820990508281820990508281830991508282860994508285860991508282860991508282850993508284850991508282850991508282830991508282830990508281830990508281820983818209905083818209905083818209905083818209905083818309915050828183099150828286099450828585099350828485099150828286099450828585099350828486099450828585099350828486099450828586099150828286099150828283099150828285099350828485099150828283099150828286099450828585099350828485099150828285099150828286099450828585099350828486099450828585099350828485099150828283099150828285099150828286099450828586099150828286099150828285099350828486099450828585099350828486099450828585099350828485099150828285099150828283099150828286099450828585099350828485099150828285099150828283099150828286099450828586099150828283099050828182099050828183099050828186099050828182099050828182099050828182099050828182099050828183099150828285099350828486099450828585099350828486099450828586099150828286099150828283099150828283099150828283099150828286099150828285099350828485099150828285099150828283099150828286099450828586099150828286099150828285099350828486099450828586099150828283099150828285099350828486099450828586099150828285099350828486099450828585099350828485099150828285099150828286099450828585099350828485099150828285099150828283099150828283099150828286099450828586099150828283099150828283099150828286099150828285099350828486099450828586099150828286099050828182099050828182099050828183099150828285099350828485099150828286099450828585099350828486099450828585099350828486099450828585099350828485099150828285099050828185099150828283099150828283099150828282099150508181850993508184840992508183850993508184840992508183850993508184850990508181850990508181840992505080828409925080838409925080838409925080838409925080838409925080838409925080838409925080838409925080838409925080838409925080838409925080838409925080838409925080838409925080838409925080838409925080838409925080838409925080838409925080838409925080838409925080838409925080838409925080838409925080838409925080838409925080838409925080838409925080838409925080838409925080838409925080838409925080838409925080838409925080838409925080838409925080838409925080838409925080838409925080838409925080838409925080838409925080838409925080838409925080838409925080838409925080838409925080838409925080838409925080838409925080838409925080838409925080838409925080838409925080838409925080838409925080838409925080838409925080838409925080838409925080838409925080838409925080838409925080838409925080838409925080838409925080838409925080838409925080838409925080838409925080838409925080838409925080838409925080838409925080838409925080838409925080838409925080838409925080838409925080838409925080838409925080838409925080838409925080838409925080838409925080838409925080838409925080838409925080838409925080838409925080838409925080838409925080838409925080838409925080838409925080838409925080838409925080838409925080838409925080838409925080838409925080838409925080838409925080838409925080838409925080838409925080838409925080838409925080838409925080838409925080838409925080838409925080838409925080838409925080838409925080838409925080838409925080838409925080838409925080838409925080838409925080838409925080838409925080838409925080838409925080838409925080838409925080838309915050919050565b828054828255906000526020600020908101928215611c4b579160200282015b82811115611c4a578251825591602001919060010190611c2f565b5b509050611c589190611d09565b5090565b828054828255906000526020600020908101928215611c98579160200282015b82811115611c97578251825591602001919060010190611c7c565b5b509050611ca59190611d2e565b5090565b828054828255906000526020600020908101928215611cf8579160200282015b82811115611cf7578251829080519060200190611ce7929190611d53565b5091602001919060010190611cc9565b5b509050611d059190611da0565b5090565b611d2b91905b80821115611d27576000816000905550600101611d0f565b5090565b90565b611d5091905b80821115611d4c576000816000905550600101611d34565b5090565b90565b828054828255906000526020600020908101928215611d8f579160200282015b82811115611d8e578251825591602001919060010190611d73565b5b509050611d9c9190611d09565b5090565b611dc991905b80821115611dc55760008181611dbc9190611dcc565b50600101611da6565b5090565b90565b5080546000825590600052602060002090810190611dea9190611d09565b5056fea165627a7a723058204e7089841ffd6871bccca860200547e37f12764c41be3451f238ea875c59ea1900296080604052620000416301ffc9a77c010000000000000000000000000000000000000000000000000000000002620000dd640100000000026401000000009004565b620000d7600073ffffffffffffffffffffffffffffffffffffffff1663bc197c8190507c010000000000000000000000000000000000000000000000000000000002600073ffffffffffffffffffffffffffffffffffffffff1663f23a6e6190507c01000000000000000000000000000000000000000000000000000000000218620000dd640100000000026401000000009004565b62000205565b63ffffffff7c010000000000000000000000000000000000000000000000000000000002817bffffffffffffffffffffffffffffffffffffffffffffffffffffffff19161415151562000198576040517f08c379a000000000000000000000000000000000000000000000000000000000815260040180806020018281038252601c8152602001807f4552433136353a20696e76616c696420696e746572666163652069640000000081525060200191505060405180910390fd5b600160036000837bffffffffffffffffffffffffffffffffffffffffffffffffffffffff19167bffffffffffffffffffffffffffffffffffffffffffffffffffffffff1916815260200190815260200160002060006101000a81548160ff02191690831515021790555050565b6147c980620002156000396000f3fe608060405260043610610138576000357c01000000000000000000000000000000000000000000000000000000009004806301ffc9a71461013d578063095ea7b3146101af578063164e68de1461022257806316dbd7761461027357806318160ddd146102d857806323b872dd14610303578063395093511461039657806340993b26146104095780634343116a146104585780635bd9e299146104b157806370a08231146105085780639003adfe1461056d578063a457c2d714610598578063a9059cbb1461060b578063b2016bd41461067e578063bc197c81146106d5578063d3c9727c14610897578063d5f15a46146108e6578063d8c55af714610976578063dd62ed3e146109c5578063ddca3f4314610a4a578063e03031a614610a75578063f23a6e6114610ab0578063f55c79d014610bdc575b600080fd5b34801561014957600080fd5b506101956004803603602081101561016057600080fd5b8101908080357bffffffffffffffffffffffffffffffffffffffffffffffffffffffff19169060200190929190505050610c35565b604051808215151515815260200191505060405180910390f35b3480156101bb57600080fd5b50610208600480360360408110156101d257600080fd5b81019080803573ffffffffffffffffffffffffffffffffffffffff16906020019092919080359060200190929190505050610c9d565b604051808215151515815260200191505060405180910390f35b34801561022e57600080fd5b506102716004803603602081101561024557600080fd5b81019080803573ffffffffffffffffffffffffffffffffffffffff169060200190929190505050610cb4565b005b34801561027f57600080fd5b506102c26004803603602081101561029657600080fd5b81019080803573ffffffffffffffffffffffffffffffffffffffff169060200190929190505050610f1f565b6040518082815260200191505060405180910390f35b3480156102e457600080fd5b506102ed610fad565b6040518082815260200191505060405180910390f35b34801561030f57600080fd5b5061037c6004803603606081101561032657600080fd5b81019080803573ffffffffffffffffffffffffffffffffffffffff169060200190929190803573ffffffffffffffffffffffffffffffffffffffff16906020019092919080359060200190929190505050610fb7565b604051808215151515815260200191505060405180910390f35b3480156103a257600080fd5b506103ef600480360360408110156103b957600080fd5b81019080803573ffffffffffffffffffffffffffffffffffffffff16906020019092919080359060200190929190505050611068565b604051808215151515815260200191505060405180910390f35b34801561041557600080fd5b506104566004803603606081101561042c57600080fd5b8101908080359060200190929190803590602001909291908035906020019092919050505061110d565b005b34801561046457600080fd5b5061049b6004803603604081101561047b57600080fd5b8101908080359060200190929190803590602001909291905050506116e5565b6040518082815260200191505060405180910390f35b3480156104bd57600080fd5b506104c6611930565b604051808273ffffffffffffffffffffffffffffffffffffffff1673ffffffffffffffffffffffffffffffffffffffff16815260200191505060405180910390f35b34801561051457600080fd5b506105576004803603602081101561052b57600080fd5b81019080803573ffffffffffffffffffffffffffffffffffffffff169060200190929190505050611956565b6040518082815260200191505060405180910390f35b34801561057957600080fd5b5061058261199e565b6040518082815260200191505060405180910390f35b3480156105a457600080fd5b506105f1600480360360408110156105bb57600080fd5b81019080803573ffffffffffffffffffffffffffffffffffffffff169060200190929190803590602001909291905050506119bc565b604051808215151515815260200191505060405180910390f35b34801561061757600080fd5b506106646004803603604081101561062e57600080fd5b81019080803573ffffffffffffffffffffffffffffffffffffffff16906020019092919080359060200190929190505050611a61565b604051808215151515815260200191505060405180910390f35b34801561068a57600080fd5b50610693611a78565b604051808273ffffffffffffffffffffffffffffffffffffffff1673ffffffffffffffffffffffffffffffffffffffff16815260200191505060405180910390f35b3480156106e157600080fd5b50610843600480360360a08110156106f857600080fd5b81019080803573ffffffffffffffffffffffffffffffffffffffff169060200190929190803573ffffffffffffffffffffffffffffffffffffffff1690602001909291908035906020019064010000000081111561075557600080fd5b82018360208201111561076757600080fd5b8035906020019184602083028401116401000000008311171561078957600080fd5b9091929391929390803590602001906401000000008111156107aa57600080fd5b8201836020820111156107bc57600080fd5b803590602001918460208302840111640100000000831117156107de57600080fd5b9091929391929390803590602001906401000000008111156107ff57600080fd5b82018360208201111561081157600080fd5b8035906020019184600183028401116401000000008311171561083357600080fd5b9091929391929390505050611a9e565b60405180827bffffffffffffffffffffffffffffffffffffffffffffffffffffffff19167bffffffffffffffffffffffffffffffffffffffffffffffffffffffff1916815260200191505060405180910390f35b3480156108a357600080fd5b506108e4600480360360608110156108ba57600080fd5b81019080803590602001909291908035906020019092919080359060200190929190505050611b67565b005b3480156108f257600080fd5b506109746004803603604081101561090957600080fd5b81019080803590602001909291908035906020019064010000000081111561093057600080fd5b82018360208201111561094257600080fd5b8035906020019184602083028401116401000000008311171561096457600080fd5b9091929391929390505050611f89565b005b34801561098257600080fd5b506109af6004803603602081101561099957600080fd5b81019080803590602001909291905050506129cd565b6040518082815260200191505060405180910390f35b3480156109d157600080fd5b50610a34600480360360408110156109e857600080fd5b81019080803573ffffffffffffffffffffffffffffffffffffffff169060200190929190803573ffffffffffffffffffffffffffffffffffffffff1690602001909291905050506129f0565b6040518082815260200191505060405180910390f35b348015610a5657600080fd5b50610a5f612a77565b6040518082815260200191505060405180910390f35b348015610a8157600080fd5b50610aae60048036036020811015610a9857600080fd5b8101908080359060200190929190505050612a7d565b005b348015610abc57600080fd5b50610b88600480360360a0811015610ad357600080fd5b81019080803573ffffffffffffffffffffffffffffffffffffffff169060200190929190803573ffffffffffffffffffffffffffffffffffffffff169060200190929190803590602001909291908035906020019092919080359060200190640100000000811115610b4457600080fd5b820183602082011115610b5657600080fd5b80359060200191846001830284011164010000000083111715610b7857600080fd5b9091929391929390505050612f99565b60405180827bffffffffffffffffffffffffffffffffffffffffffffffffffffffff19167bffffffffffffffffffffffffffffffffffffffffffffffffffffffff1916815260200191505060405180910390f35b348015610be857600080fd5b50610c1f60048036036040811015610bff57600080fd5b810190808035906020019092919080359060200190929190505050613028565b6040518082815260200191505060405180910390f35b600060036000837bffffffffffffffffffffffffffffffffffffffffffffffffffffffff19167bffffffffffffffffffffffffffffffffffffffffffffffffffffffff1916815260200190815260200160002060009054906101000a900460ff169050919050565b6000610caa33848461326b565b6001905092915050565b6000610cbe610fad565b610cdb610cca84611956565b6008546134ec90919063ffffffff16565b811515610ce457fe5b0490506000610d3b600c60008573ffffffffffffffffffffffffffffffffffffffff1673ffffffffffffffffffffffffffffffffffffffff16815260200190815260200160002054836135b990919063ffffffff16565b90506000811115610f1a5781600c60008573ffffffffffffffffffffffffffffffffffffffff1673ffffffffffffffffffffffffffffffffffffffff16815260200190815260200160002081905550610d9f81600d5461364490919063ffffffff16565b600d81905550600560009054906101000a900473ffffffffffffffffffffffffffffffffffffffff1673ffffffffffffffffffffffffffffffffffffffff1663a9059cbb84836040518363ffffffff167c0100000000000000000000000000000000000000000000000000000000028152600401808373ffffffffffffffffffffffffffffffffffffffff1673ffffffffffffffffffffffffffffffffffffffff16815260200182815260200192505050602060405180830381600087803b158015610e6a57600080fd5b505af1158015610e7e573d6000803e3d6000fd5b505050506040513d6020811015610e9457600080fd5b81019080805190602001909291905050501515610f19576040517f08c379a000000000000000000000000000000000000000000000000000000000815260040180806020018281038252601a8152602001807f7769746864726177616c207472616e73666572206661696c656400000000000081525060200191505060405180910390fd5b5b505050565b600080610f2a610fad565b610f47610f3685611956565b6008546134ec90919063ffffffff16565b811515610f5057fe5b049050610fa5600c60008573ffffffffffffffffffffffffffffffffffffffff1673ffffffffffffffffffffffffffffffffffffffff16815260200190815260200160002054826135b990919063ffffffff16565b915050919050565b6000600254905090565b6000610fc48484846136ce565b61105d843361105885600160008a73ffffffffffffffffffffffffffffffffffffffff1673ffffffffffffffffffffffffffffffffffffffff16815260200190815260200160002060003373ffffffffffffffffffffffffffffffffffffffff1673ffffffffffffffffffffffffffffffffffffffff168152602001908152602001600020546135b990919063ffffffff16565b61326b565b600190509392505050565b600061110333846110fe85600160003373ffffffffffffffffffffffffffffffffffffffff1673ffffffffffffffffffffffffffffffffffffffff16815260200190815260200160002060008973ffffffffffffffffffffffffffffffffffffffff1673ffffffffffffffffffffffffffffffffffffffff1681526020019081526020016000205461364490919063ffffffff16565b61326b565b6001905092915050565b60006111198484613028565b9050818110151515611193576040517f08c379a000000000000000000000000000000000000000000000000000000000815260040180806020018281038252601e8152602001807f6d696e696d756d2062757920616d6f756e74206e6f742072656163686564000081525060200191505060405180910390fd5b600560009054906101000a900473ffffffffffffffffffffffffffffffffffffffff1673ffffffffffffffffffffffffffffffffffffffff166323b872dd3330876040518463ffffffff167c0100000000000000000000000000000000000000000000000000000000028152600401808473ffffffffffffffffffffffffffffffffffffffff1673ffffffffffffffffffffffffffffffffffffffff1681526020018373ffffffffffffffffffffffffffffffffffffffff1673ffffffffffffffffffffffffffffffffffffffff1681526020018281526020019350505050602060405180830381600087803b15801561128c57600080fd5b505af11580156112a0573d6000803e3d6000fd5b505050506040513d60208110156112b657600080fd5b8101908080519060200190929190505050151561133b576040517f08c379a00000000000000000000000000000000000000000000000000000000081526004018080602001828103825260148152602001807f636f7374207472616e73666572206661696c656400000000000000000000000081525060200191505060405180910390fd5b6000670de0b6b3a764000061135b600754876134ec90919063ffffffff16565b81151561136457fe5b04905061137c8160085461364490919063ffffffff16565b600881905550600061139782876135b990919063ffffffff16565b9050600560009054906101000a900473ffffffffffffffffffffffffffffffffffffffff1673ffffffffffffffffffffffffffffffffffffffff1663095ea7b3600460009054906101000a900473ffffffffffffffffffffffffffffffffffffffff16836040518363ffffffff167c0100000000000000000000000000000000000000000000000000000000028152600401808373ffffffffffffffffffffffffffffffffffffffff1673ffffffffffffffffffffffffffffffffffffffff16815260200182815260200192505050602060405180830381600087803b15801561148057600080fd5b505af1158015611494573d6000803e3d6000fd5b505050506040513d60208110156114aa57600080fd5b8101908080519060200190929190505050151561152f576040517f08c379a000000000000000000000000000000000000000000000000000000000815260040180806020018281038252601a8152602001807f617070726f76616c20666f722073706c697473206661696c656400000000000081525060200191505060405180910390fd5b611538816139ff565b600460009054906101000a900473ffffffffffffffffffffffffffffffffffffffff1673ffffffffffffffffffffffffffffffffffffffff1663f242432a3033600b8981548110151561158757fe5b9060005260206000200154876040518563ffffffff167c0100000000000000000000000000000000000000000000000000000000028152600401808573ffffffffffffffffffffffffffffffffffffffff1673ffffffffffffffffffffffffffffffffffffffff1681526020018473ffffffffffffffffffffffffffffffffffffffff1673ffffffffffffffffffffffffffffffffffffffff1681526020018381526020018281526020018060200182810382526000815260200160200195505050505050600060405180830381600087803b15801561166657600080fd5b505af115801561167a573d6000803e3d6000fd5b50505050843373ffffffffffffffffffffffffffffffffffffffff167f4f62630f51608fc8a7603a9391a5101e58bd7c276139366fc107dc3b67c3dcf888858760405180848152602001838152602001828152602001935050505060405180910390a3505050505050565b6000600b8054905082101515611763576040517f08c379a00000000000000000000000000000000000000000000000000000000081526004018080602001828103825260158152602001807f696e76616c6964206f7574636f6d6520696e646578000000000000000000000081525060200191505060405180910390fd5b606061176d613c29565b9050600061178e600754670de0b6b3a76400006135b990919063ffffffff16565b6117a9670de0b6b3a7640000876134ec90919063ffffffff16565b8115156117b257fe5b049050600082858151811015156117c557fe5b90602001906020020151905060006117ee670de0b6b3a7640000836134ec90919063ffffffff16565b905060008090505b845181101561186c57868114151561185f576000858281518110151561181857fe5b90602001906020020151905061185b61183a86836135b990919063ffffffff16565b61184d83866134ec90919063ffffffff16565b613e7d90919063ffffffff16565b9250505b80806001019150506117f6565b506000811115156118e5576040517f08c379a000000000000000000000000000000000000000000000000000000000815260040180806020018281038252601b8152602001807f6d7573742068617665206e6f6e2d7a65726f2062616c616e636573000000000081525060200191505060405180910390fd5b61192482611916611907670de0b6b3a764000085613e7d90919063ffffffff16565b8661364490919063ffffffff16565b6135b990919063ffffffff16565b94505050505092915050565b600460009054906101000a900473ffffffffffffffffffffffffffffffffffffffff1681565b60008060008373ffffffffffffffffffffffffffffffffffffffff1673ffffffffffffffffffffffffffffffffffffffff168152602001908152602001600020549050919050565b60006119b7600d546008546135b990919063ffffffff16565b905090565b6000611a573384611a5285600160003373ffffffffffffffffffffffffffffffffffffffff1673ffffffffffffffffffffffffffffffffffffffff16815260200190815260200160002060008973ffffffffffffffffffffffffffffffffffffffff1673ffffffffffffffffffffffffffffffffffffffff168152602001908152602001600020546135b990919063ffffffff16565b61326b565b6001905092915050565b6000611a6e3384846136ce565b6001905092915050565b600560009054906101000a900473ffffffffffffffffffffffffffffffffffffffff1681565b60003073ffffffffffffffffffffffffffffffffffffffff168973ffffffffffffffffffffffffffffffffffffffff16148015611b075750600073ffffffffffffffffffffffffffffffffffffffff168873ffffffffffffffffffffffffffffffffffffffff16145b15611b375763bc197c817c0100000000000000000000000000000000000000000000000000000000029050611b5b565b60007c01000000000000000000000000000000000000000000000000000000000290505b98975050505050505050565b6000611b7384846116e5565b9050818111151515611bed576040517f08c379a000000000000000000000000000000000000000000000000000000000815260040180806020018281038252601c8152602001807f6d6178696d756d2073656c6c20616d6f756e742065786365656465640000000081525060200191505060405180910390fd5b600460009054906101000a900473ffffffffffffffffffffffffffffffffffffffff1673ffffffffffffffffffffffffffffffffffffffff1663f242432a3330600b87815481101515611c3c57fe5b9060005260206000200154856040518563ffffffff167c0100000000000000000000000000000000000000000000000000000000028152600401808573ffffffffffffffffffffffffffffffffffffffff1673ffffffffffffffffffffffffffffffffffffffff1681526020018473ffffffffffffffffffffffffffffffffffffffff1673ffffffffffffffffffffffffffffffffffffffff1681526020018381526020018281526020018060200182810382526000815260200160200195505050505050600060405180830381600087803b158015611d1b57600080fd5b505af1158015611d2f573d6000803e3d6000fd5b505050506000611d52600754670de0b6b3a76400006135b990919063ffffffff16565b611d67600754876134ec90919063ffffffff16565b811515611d7057fe5b049050611d888160085461364490919063ffffffff16565b6008819055506000611da3828761364490919063ffffffff16565b9050611dae81613eb5565b600560009054906101000a900473ffffffffffffffffffffffffffffffffffffffff1673ffffffffffffffffffffffffffffffffffffffff1663a9059cbb33886040518363ffffffff167c0100000000000000000000000000000000000000000000000000000000028152600401808373ffffffffffffffffffffffffffffffffffffffff1673ffffffffffffffffffffffffffffffffffffffff16815260200182815260200192505050602060405180830381600087803b158015611e7357600080fd5b505af1158015611e87573d6000803e3d6000fd5b505050506040513d6020811015611e9d57600080fd5b81019080805190602001909291905050501515611f22576040517f08c379a00000000000000000000000000000000000000000000000000000000081526004018080602001828103825260168152602001807f72657475726e207472616e73666572206661696c65640000000000000000000081525060200191505060405180910390fd5b843373ffffffffffffffffffffffffffffffffffffffff167fadcf2a240ed9300d681d9a3f5382b6c1beed1b7e46643e0c7b42cbe6e2d766b488858760405180848152602001838152602001828152602001935050505060405180910390a3505050505050565b600083111515612001576040517f08c379a00000000000000000000000000000000000000000000000000000000081526004018080602001828103825260188152602001807f66756e64696e67206d757374206265206e6f6e2d7a65726f000000000000000081525060200191505060405180910390fd5b6060600b805490506040519080825280602002602001820160405280156120375781602001602082028038833980820191505090505b5090506000612044610fad565b90506000808211156121f5576000858590501415156120f1576040517f08c379a00000000000000000000000000000000000000000000000000000000081526004018080602001828103825260328152602001807f63616e6e6f742075736520646973747269627574696f6e2068696e742061667481526020017f657220696e697469616c2066756e64696e67000000000000000000000000000081525060400191505060405180910390fd5b60606120fb613c29565b9050600080905060008090505b8251811015612147576000838281518110151561212157fe5b90602001906020020151905080831015612139578092505b508080600101915050612108565b5060008090505b82518110156121cd57600082612184858481518110151561216b57fe5b906020019060200201518c6134ec90919063ffffffff16565b81151561218d57fe5b0490506121a3818b6135b990919063ffffffff16565b87838151811015156121b157fe5b906020019060200201818152505050808060010191505061214e565b50806121e2858a6134ec90919063ffffffff16565b8115156121eb57fe5b04925050506123cd565b60008585905011156123c957600b8054905085859050141515612280576040517f08c379a000000000000000000000000000000000000000000000000000000000815260040180806020018281038252600f8152602001807f68696e74206c656e677468206f6666000000000000000000000000000000000081525060200191505060405180910390fd5b600080905060008090505b868690508110156122c957600087878381811015156122a657fe5b905060200201359050808310156122bb578092505b50808060010191505061228b565b5060008090505b868690508110156123c65760008261230589898581811015156122ef57fe5b905060200201358b6134ec90919063ffffffff16565b81151561230e57fe5b049050600081111515612389576040517f08c379a000000000000000000000000000000000000000000000000000000000815260040180806020018281038252601e8152602001807f6d7573742068696e7420612076616c696420646973747269627574696f6e000081525060200191505060405180910390fd5b61239c818a6135b990919063ffffffff16565b86838151811015156123aa57fe5b90602001906020020181815250505080806001019150506122d0565b50505b8590505b600560009054906101000a900473ffffffffffffffffffffffffffffffffffffffff1673ffffffffffffffffffffffffffffffffffffffff166323b872dd3330896040518463ffffffff167c0100000000000000000000000000000000000000000000000000000000028152600401808473ffffffffffffffffffffffffffffffffffffffff1673ffffffffffffffffffffffffffffffffffffffff1681526020018373ffffffffffffffffffffffffffffffffffffffff1673ffffffffffffffffffffffffffffffffffffffff1681526020018281526020019350505050602060405180830381600087803b1580156124c657600080fd5b505af11580156124da573d6000803e3d6000fd5b505050506040513d60208110156124f057600080fd5b81019080805190602001909291905050501515612575576040517f08c379a00000000000000000000000000000000000000000000000000000000081526004018080602001828103825260178152602001807f66756e64696e67207472616e73666572206661696c656400000000000000000081525060200191505060405180910390fd5b600560009054906101000a900473ffffffffffffffffffffffffffffffffffffffff1673ffffffffffffffffffffffffffffffffffffffff1663095ea7b3600460009054906101000a900473ffffffffffffffffffffffffffffffffffffffff16886040518363ffffffff167c0100000000000000000000000000000000000000000000000000000000028152600401808373ffffffffffffffffffffffffffffffffffffffff1673ffffffffffffffffffffffffffffffffffffffff16815260200182815260200192505050602060405180830381600087803b15801561265c57600080fd5b505af1158015612670573d6000803e3d6000fd5b505050506040513d602081101561268657600080fd5b8101908080519060200190929190505050151561270b576040517f08c379a000000000000000000000000000000000000000000000000000000000815260040180806020018281038252601a8152602001807f617070726f76616c20666f722073706c697473206661696c656400000000000081525060200191505060405180910390fd5b612714866139ff565b61271e33826140d9565b600460009054906101000a900473ffffffffffffffffffffffffffffffffffffffff1673ffffffffffffffffffffffffffffffffffffffff16632eb2c2d63033600b876040518563ffffffff167c0100000000000000000000000000000000000000000000000000000000028152600401808573ffffffffffffffffffffffffffffffffffffffff1673ffffffffffffffffffffffffffffffffffffffff1681526020018473ffffffffffffffffffffffffffffffffffffffff1673ffffffffffffffffffffffffffffffffffffffff168152602001806020018060200180602001848103845286818154815260200191508054801561283d57602002820191906000526020600020905b815481526020019060010190808311612829575b5050848103835285818151815260200191508051906020019060200280838360005b8381101561287a57808201518184015260208101905061285f565b50505050905001848103825260008152602001602001975050505050505050600060405180830381600087803b1580156128b357600080fd5b505af11580156128c7573d6000803e3d6000fd5b5050505060008090505b835181101561292d5761290484828151811015156128eb57fe5b90602001906020020151886135b990919063ffffffff16565b848281518110151561291257fe5b906020019060200201818152505080806001019150506128d1565b503373ffffffffffffffffffffffffffffffffffffffff167fec2dc3e5a3bb9aa0a1deb905d2bd23640d07f107e6ceb484024501aad964a95184836040518080602001838152602001828103825284818151815260200191508051906020019060200280838360005b838110156129b1578082015181840152602081019050612996565b50505050905001935050505060405180910390a2505050505050565b6006818154811015156129dc57fe5b906000526020600020016000915090505481565b6000600160008473ffffffffffffffffffffffffffffffffffffffff1673ffffffffffffffffffffffffffffffffffffffff16815260200190815260200160002060008373ffffffffffffffffffffffffffffffffffffffff1673ffffffffffffffffffffffffffffffffffffffff16815260200190815260200160002054905092915050565b60075481565b6060612a87613c29565b905060608151604051908082528060200260200182016040528015612abb5781602001602082028038833980820191505090505b5090506000612ac8610fad565b905060008090505b8351811015612b375781612b04868684815181101515612aec57fe5b906020019060200201516134ec90919063ffffffff16565b811515612b0d57fe5b048382815181101515612b1c57fe5b90602001906020020181815250508080600101915050612ad0565b506000600560009054906101000a900473ffffffffffffffffffffffffffffffffffffffff1673ffffffffffffffffffffffffffffffffffffffff166370a08231306040518263ffffffff167c0100000000000000000000000000000000000000000000000000000000028152600401808273ffffffffffffffffffffffffffffffffffffffff1673ffffffffffffffffffffffffffffffffffffffff16815260200191505060206040518083038186803b158015612bf557600080fd5b505afa158015612c09573d6000803e3d6000fd5b505050506040513d6020811015612c1f57600080fd5b81019080805190602001909291905050509050612c3c33866142a2565b612d44600560009054906101000a900473ffffffffffffffffffffffffffffffffffffffff1673ffffffffffffffffffffffffffffffffffffffff166370a08231306040518263ffffffff167c0100000000000000000000000000000000000000000000000000000000028152600401808273ffffffffffffffffffffffffffffffffffffffff1673ffffffffffffffffffffffffffffffffffffffff16815260200191505060206040518083038186803b158015612cfa57600080fd5b505afa158015612d0e573d6000803e3d6000fd5b505050506040513d6020811015612d2457600080fd5b8101908080519060200190929190505050826135b990919063ffffffff16565b9050600460009054906101000a900473ffffffffffffffffffffffffffffffffffffffff1673ffffffffffffffffffffffffffffffffffffffff16632eb2c2d63033600b876040518563ffffffff167c0100000000000000000000000000000000000000000000000000000000028152600401808573ffffffffffffffffffffffffffffffffffffffff1673ffffffffffffffffffffffffffffffffffffffff1681526020018473ffffffffffffffffffffffffffffffffffffffff1673ffffffffffffffffffffffffffffffffffffffff1681526020018060200180602001806020018481038452868181548152602001915080548015612e6557602002820191906000526020600020905b815481526020019060010190808311612e51575b5050848103835285818151815260200191508051906020019060200280838360005b83811015612ea2578082015181840152602081019050612e87565b50505050905001848103825260008152602001602001975050505050505050600060405180830381600087803b158015612edb57600080fd5b505af1158015612eef573d6000803e3d6000fd5b505050503373ffffffffffffffffffffffffffffffffffffffff167f8b4b2c8ebd04c47fc8bce136a85df9b93fcb1f47c8aa296457d4391519d190e78483886040518080602001848152602001838152602001828103825285818151815260200191508051906020019060200280838360005b83811015612f7d578082015181840152602081019050612f62565b5050505090500194505050505060405180910390a25050505050565b60003073ffffffffffffffffffffffffffffffffffffffff168773ffffffffffffffffffffffffffffffffffffffff161415612ffa5763f23a6e617c010000000000000000000000000000000000000000000000000000000002905061301e565b60007c01000000000000000000000000000000000000000000000000000000000290505b9695505050505050565b6000600b80549050821015156130a6576040517f08c379a00000000000000000000000000000000000000000000000000000000081526004018080602001828103825260158152602001807f696e76616c6964206f7574636f6d6520696e646578000000000000000000000081525060200191505060405180910390fd5b60606130b0613c29565b905060006130ee670de0b6b3a76400006130d5600754886134ec90919063ffffffff16565b8115156130de57fe5b04866135b990919063ffffffff16565b90506000828581518110151561310057fe5b9060200190602002015190506000613129670de0b6b3a7640000836134ec90919063ffffffff16565b905060008090505b84518110156131a757868114151561319a576000858281518110151561315357fe5b906020019060200201519050613196613175868361364490919063ffffffff16565b61318883866134ec90919063ffffffff16565b613e7d90919063ffffffff16565b9250505b8080600101915050613131565b50600081111515613220576040517f08c379a000000000000000000000000000000000000000000000000000000000815260040180806020018281038252601b8152602001807f6d7573742068617665206e6f6e2d7a65726f2062616c616e636573000000000081525060200191505060405180910390fd5b61325f61323e670de0b6b3a764000083613e7d90919063ffffffff16565b613251858561364490919063ffffffff16565b6135b990919063ffffffff16565b94505050505092915050565b600073ffffffffffffffffffffffffffffffffffffffff168373ffffffffffffffffffffffffffffffffffffffff1614151515613336576040517f08c379a00000000000000000000000000000000000000000000000000000000081526004018080602001828103825260248152602001807f45524332303a20617070726f76652066726f6d20746865207a65726f2061646481526020017f726573730000000000000000000000000000000000000000000000000000000081525060400191505060405180910390fd5b600073ffffffffffffffffffffffffffffffffffffffff168273ffffffffffffffffffffffffffffffffffffffff1614151515613401576040517f08c379a00000000000000000000000000000000000000000000000000000000081526004018080602001828103825260228152602001807f45524332303a20617070726f766520746f20746865207a65726f20616464726581526020017f737300000000000000000000000000000000000000000000000000000000000081525060400191505060405180910390fd5b80600160008573ffffffffffffffffffffffffffffffffffffffff1673ffffffffffffffffffffffffffffffffffffffff16815260200190815260200160002060008473ffffffffffffffffffffffffffffffffffffffff1673ffffffffffffffffffffffffffffffffffffffff168152602001908152602001600020819055508173ffffffffffffffffffffffffffffffffffffffff168373ffffffffffffffffffffffffffffffffffffffff167f8c5be1e5ebec7d5bd14f71427d1e84f3dd0314c0f7b2291e5b200ac8c7c3b925836040518082815260200191505060405180910390a3505050565b6000808314156134ff57600090506135b3565b6000828402905082848281151561351257fe5b041415156135ae576040517f08c379a00000000000000000000000000000000000000000000000000000000081526004018080602001828103825260218152602001807f536166654d6174683a206d756c7469706c69636174696f6e206f766572666c6f81526020017f770000000000000000000000000000000000000000000000000000000000000081525060400191505060405180910390fd5b809150505b92915050565b6000828211151515613633576040517f08c379a000000000000000000000000000000000000000000000000000000000815260040180806020018281038252601e8152602001807f536166654d6174683a207375627472616374696f6e206f766572666c6f77000081525060200191505060405180910390fd5b600082840390508091505092915050565b60008082840190508381101515156136c4576040517f08c379a000000000000000000000000000000000000000000000000000000000815260040180806020018281038252601b8152602001807f536166654d6174683a206164646974696f6e206f766572666c6f77000000000081525060200191505060405180910390fd5b8091505092915050565b600073ffffffffffffffffffffffffffffffffffffffff168373ffffffffffffffffffffffffffffffffffffffff1614151515613799576040517f08c379a00000000000000000000000000000000000000000000000000000000081526004018080602001828103825260258152602001807f45524332303a207472616e736665722066726f6d20746865207a65726f20616481526020017f647265737300000000000000000000000000000000000000000000000000000081525060400191505060405180910390fd5b600073ffffffffffffffffffffffffffffffffffffffff168273ffffffffffffffffffffffffffffffffffffffff1614151515613864576040517f08c379a00000000000000000000000000000000000000000000000000000000081526004018080602001828103825260238152602001807f45524332303a207472616e7366657220746f20746865207a65726f206164647281526020017f657373000000000000000000000000000000000000000000000000000000000081525060400191505060405180910390fd5b61386f838383614491565b6138c0816000808673ffffffffffffffffffffffffffffffffffffffff1673ffffffffffffffffffffffffffffffffffffffff168152602001908152602001600020546135b990919063ffffffff16565b6000808573ffffffffffffffffffffffffffffffffffffffff1673ffffffffffffffffffffffffffffffffffffffff16815260200190815260200160002081905550613953816000808573ffffffffffffffffffffffffffffffffffffffff1673ffffffffffffffffffffffffffffffffffffffff1681526020019081526020016000205461364490919063ffffffff16565b6000808473ffffffffffffffffffffffffffffffffffffffff1673ffffffffffffffffffffffffffffffffffffffff168152602001908152602001600020819055508173ffffffffffffffffffffffffffffffffffffffff168373ffffffffffffffffffffffffffffffffffffffff167fddf252ad1be2c89b69c2b068fc378daa952ba7f163c4a11628f55a4df523b3ef836040518082815260200191505060405180910390a3505050565b600060016006805490500390505b600081121515613c25576060613a3b600983815481101515613a2b57fe5b9060005260206000200154614724565b905060008090505b600a83815481101515613a5257fe5b9060005260206000200180549050811015613c1557600460009054906101000a900473ffffffffffffffffffffffffffffffffffffffff1673ffffffffffffffffffffffffffffffffffffffff166372ce4275600560009054906101000a900473ffffffffffffffffffffffffffffffffffffffff16600a86815481101515613ad757fe5b9060005260206000200184815481101515613aee57fe5b9060005260206000200154600687815481101515613b0857fe5b906000526020600020015486896040518663ffffffff167c0100000000000000000000000000000000000000000000000000000000028152600401808673ffffffffffffffffffffffffffffffffffffffff1673ffffffffffffffffffffffffffffffffffffffff16815260200185815260200184815260200180602001838152602001828103825284818151815260200191508051906020019060200280838360005b83811015613bc7578082015181840152602081019050613bac565b505050509050019650505050505050600060405180830381600087803b158015613bf057600080fd5b505af1158015613c04573d6000803e3d6000fd5b505050508080600101915050613a43565b5050808060019003915050613a0d565b5050565b606080600b80549050604051908082528060200260200182016040528015613c605781602001602082028038833980820191505090505b50905060008090505b600b80549050811015613cce57308282815181101515613c8557fe5b9060200190602002019073ffffffffffffffffffffffffffffffffffffffff16908173ffffffffffffffffffffffffffffffffffffffff16815250508080600101915050613c69565b50600460009054906101000a900473ffffffffffffffffffffffffffffffffffffffff1673ffffffffffffffffffffffffffffffffffffffff16634e1273f482600b6040518363ffffffff167c0100000000000000000000000000000000000000000000000000000000028152600401808060200180602001838103835285818151815260200191508051906020019060200280838360005b83811015613d82578082015181840152602081019050613d67565b505050509050018381038252848181548152602001915080548015613dc657602002820191906000526020600020905b815481526020019060010190808311613db2575b505094505050505060006040518083038186803b158015613de657600080fd5b505afa158015613dfa573d6000803e3d6000fd5b505050506040513d6000823e3d601f19601f820116820180604052506020811015613e2457600080fd5b810190808051640100000000811115613e3c57600080fd5b82810190506020810184811115613e5257600080fd5b8151856020820283011164010000000082111715613e6f57600080fd5b505092919050505091505090565b600080831115613ea05760018260018503811515613e9757fe5b04019050613eaf565b8183811515613eab57fe5b0490505b92915050565b60008090505b6006805490508110156140d5576060613eec600983815481101515613edc57fe5b9060005260206000200154614724565b905060008090505b600a83815481101515613f0357fe5b90600052602060002001805490508110156140c657600460009054906101000a900473ffffffffffffffffffffffffffffffffffffffff1673ffffffffffffffffffffffffffffffffffffffff16639e7212ad600560009054906101000a900473ffffffffffffffffffffffffffffffffffffffff16600a86815481101515613f8857fe5b9060005260206000200184815481101515613f9f57fe5b9060005260206000200154600687815481101515613fb957fe5b906000526020600020015486896040518663ffffffff167c0100000000000000000000000000000000000000000000000000000000028152600401808673ffffffffffffffffffffffffffffffffffffffff1673ffffffffffffffffffffffffffffffffffffffff16815260200185815260200184815260200180602001838152602001828103825284818151815260200191508051906020019060200280838360005b8381101561407857808201518184015260208101905061405d565b505050509050019650505050505050600060405180830381600087803b1580156140a157600080fd5b505af11580156140b5573d6000803e3d6000fd5b505050508080600101915050613ef4565b50508080600101915050613ebb565b5050565b600073ffffffffffffffffffffffffffffffffffffffff168273ffffffffffffffffffffffffffffffffffffffff161415151561417e576040517f08c379a000000000000000000000000000000000000000000000000000000000815260040180806020018281038252601f8152602001807f45524332303a206d696e7420746f20746865207a65726f20616464726573730081525060200191505060405180910390fd5b61418a60008383614491565b61419f8160025461364490919063ffffffff16565b6002819055506141f6816000808573ffffffffffffffffffffffffffffffffffffffff1673ffffffffffffffffffffffffffffffffffffffff1681526020019081526020016000205461364490919063ffffffff16565b6000808473ffffffffffffffffffffffffffffffffffffffff1673ffffffffffffffffffffffffffffffffffffffff168152602001908152602001600020819055508173ffffffffffffffffffffffffffffffffffffffff16600073ffffffffffffffffffffffffffffffffffffffff167fddf252ad1be2c89b69c2b068fc378daa952ba7f163c4a11628f55a4df523b3ef836040518082815260200191505060405180910390a35050565b600073ffffffffffffffffffffffffffffffffffffffff168273ffffffffffffffffffffffffffffffffffffffff161415151561436d576040517f08c379a00000000000000000000000000000000000000000000000000000000081526004018080602001828103825260218152602001807f45524332303a206275726e2066726f6d20746865207a65726f2061646472657381526020017f730000000000000000000000000000000000000000000000000000000000000081525060400191505060405180910390fd5b61437982600083614491565b6143ca816000808573ffffffffffffffffffffffffffffffffffffffff1673ffffffffffffffffffffffffffffffffffffffff168152602001908152602001600020546135b990919063ffffffff16565b6000808473ffffffffffffffffffffffffffffffffffffffff1673ffffffffffffffffffffffffffffffffffffffff16815260200190815260200160002081905550614421816002546135b990919063ffffffff16565b600281905550600073ffffffffffffffffffffffffffffffffffffffff168273ffffffffffffffffffffffffffffffffffffffff167fddf252ad1be2c89b69c2b068fc378daa952ba7f163c4a11628f55a4df523b3ef836040518082815260200191505060405180910390a35050565b600073ffffffffffffffffffffffffffffffffffffffff168373ffffffffffffffffffffffffffffffffffffffff161415156144d1576144d083610cb4565b5b60006144db610fad565b9050600080821461450b57816144fc846008546134ec90919063ffffffff16565b81151561450557fe5b0461450d565b825b9050600073ffffffffffffffffffffffffffffffffffffffff168573ffffffffffffffffffffffffffffffffffffffff161415156145fa5761459781600c60008873ffffffffffffffffffffffffffffffffffffffff1673ffffffffffffffffffffffffffffffffffffffff168152602001908152602001600020546135b990919063ffffffff16565b600c60008773ffffffffffffffffffffffffffffffffffffffff1673ffffffffffffffffffffffffffffffffffffffff168152602001908152602001600020819055506145ef81600d546135b990919063ffffffff16565b600d81905550614616565b61460f8160085461364490919063ffffffff16565b6008819055505b600073ffffffffffffffffffffffffffffffffffffffff168473ffffffffffffffffffffffffffffffffffffffff161415156147015761469e81600c60008773ffffffffffffffffffffffffffffffffffffffff1673ffffffffffffffffffffffffffffffffffffffff1681526020019081526020016000205461364490919063ffffffff16565b600c60008673ffffffffffffffffffffffffffffffffffffffff1673ffffffffffffffffffffffffffffffffffffffff168152602001908152602001600020819055506146f681600d5461364490919063ffffffff16565b600d8190555061471d565b614716816008546135b990919063ffffffff16565b6008819055505b5050505050565b6060816040519080825280602002602001820160405280156147555781602001602082028038833980820191505090505b50905060008090505b82811015614797578060019060020a02828281518110151561477c57fe5b9060200190602002018181525050808060010191505061475e565b5091905056fea165627a7a723058207be831a72b7a405fa8c44be9317bc43504f01731476c4eb386a652272eb1557e0029",
  "source": "pragma solidity ^0.5.1;\r\n\r\nimport { IERC20 } from \"openzeppelin-solidity/contracts/token/ERC20/IERC20.sol\";\r\nimport { ConditionalTokens } from \"@gnosis.pm/conditional-tokens-contracts/contracts/ConditionalTokens.sol\";\r\nimport { CTHelpers } from \"@gnosis.pm/conditional-tokens-contracts/contracts/CTHelpers.sol\";\r\nimport { ConstructedCloneFactory } from \"@gnosis.pm/util-contracts/contracts/ConstructedCloneFactory.sol\";\r\nimport { FixedProductMarketMaker, FixedProductMarketMakerData } from \"./FixedProductMarketMaker.sol\";\r\nimport { ERC1155TokenReceiver } from \"@gnosis.pm/conditional-tokens-contracts/contracts/ERC1155/ERC1155TokenReceiver.sol\";\r\n\r\n\r\ncontract FixedProductMarketMakerFactory is ConstructedCloneFactory, FixedProductMarketMakerData {\r\n    event FixedProductMarketMakerCreation(\r\n        address indexed creator,\r\n        FixedProductMarketMaker fixedProductMarketMaker,\r\n        ConditionalTokens indexed conditionalTokens,\r\n        IERC20 indexed collateralToken,\r\n        bytes32[] conditionIds,\r\n        uint fee\r\n    );\r\n\r\n    FixedProductMarketMaker public implementationMaster;\r\n\r\n    constructor() public {\r\n        implementationMaster = new FixedProductMarketMaker();\r\n    }\r\n\r\n    function cloneConstructor(bytes calldata consData) external {\r\n        (\r\n            ConditionalTokens _conditionalTokens,\r\n            IERC20 _collateralToken,\r\n            bytes32[] memory _conditionIds,\r\n            uint _fee\r\n        ) = abi.decode(consData, (ConditionalTokens, IERC20, bytes32[], uint));\r\n\r\n        _supportedInterfaces[_INTERFACE_ID_ERC165] = true;\r\n        _supportedInterfaces[\r\n            ERC1155TokenReceiver(0).onERC1155Received.selector ^\r\n            ERC1155TokenReceiver(0).onERC1155BatchReceived.selector\r\n        ] = true;\r\n\r\n        conditionalTokens = _conditionalTokens;\r\n        collateralToken = _collateralToken;\r\n        conditionIds = _conditionIds;\r\n        fee = _fee;\r\n\r\n        uint atomicOutcomeSlotCount = 1;\r\n        outcomeSlotCounts = new uint[](conditionIds.length);\r\n        for (uint i = 0; i < conditionIds.length; i++) {\r\n            uint outcomeSlotCount = conditionalTokens.getOutcomeSlotCount(conditionIds[i]);\r\n            atomicOutcomeSlotCount *= outcomeSlotCount;\r\n            outcomeSlotCounts[i] = outcomeSlotCount;\r\n        }\r\n        require(atomicOutcomeSlotCount > 1, \"conditions must be valid\");\r\n\r\n        collectionIds = new bytes32[][](conditionIds.length);\r\n        _recordCollectionIDsForAllConditions(conditionIds.length, bytes32(0));\r\n        require(positionIds.length == atomicOutcomeSlotCount, \"position IDs construction failed!?\");\r\n    }\r\n\r\n    function _recordCollectionIDsForAllConditions(uint conditionsLeft, bytes32 parentCollectionId) private {\r\n        if(conditionsLeft == 0) {\r\n            positionIds.push(CTHelpers.getPositionId(collateralToken, parentCollectionId));\r\n            return;\r\n        }\r\n\r\n        conditionsLeft--;\r\n\r\n        uint outcomeSlotCount = outcomeSlotCounts[conditionsLeft];\r\n\r\n        collectionIds[conditionsLeft].push(parentCollectionId);\r\n        for(uint i = 0; i < outcomeSlotCount; i++) {\r\n            _recordCollectionIDsForAllConditions(\r\n                conditionsLeft,\r\n                CTHelpers.getCollectionId(\r\n                    parentCollectionId,\r\n                    conditionIds[conditionsLeft],\r\n                    1 << i\r\n                )\r\n            );\r\n        }\r\n    }\r\n\r\n    function createFixedProductMarketMaker(\r\n        ConditionalTokens conditionalTokens,\r\n        IERC20 collateralToken,\r\n        bytes32[] calldata conditionIds,\r\n        uint fee\r\n    )\r\n        external\r\n        returns (FixedProductMarketMaker)\r\n    {\r\n        FixedProductMarketMaker fixedProductMarketMaker = FixedProductMarketMaker(\r\n            createClone(address(implementationMaster), abi.encode(\r\n                conditionalTokens,\r\n                collateralToken,\r\n                conditionIds,\r\n                fee\r\n            ))\r\n        );\r\n        emit FixedProductMarketMakerCreation(\r\n            msg.sender,\r\n            fixedProductMarketMaker,\r\n            conditionalTokens,\r\n            collateralToken,\r\n            conditionIds,\r\n            fee\r\n        );\r\n        return fixedProductMarketMaker;\r\n    }\r\n}\r\n",
  "sourcePath": "C:/Users/konst/IdeaProjects/conditional-tokens-market-makers/contracts/FixedProductMarketMakerFactory.sol",
  "compiler": {
    "name": "solc",
    "version": "0.5.1+commit.c8a2cb62.Emscripten.clang"
  },
  "schemaVersion": "3.0.16",
  "updatedAt": "2021-08-01T16:13:25.610Z",
  "devdoc": {
    "methods": {}
  },
  "userdoc": {
    "methods": {}
  }
}